:020000040000FA
:100000004020202091010000950100009701000090
:1000100000000000000000000000000000000000E0
:100020000000000000000000000000009901000036
:1000300000000000000000009B0100009D01000086
:100040009F0100009F0100009F010000B93C0000DB
:100050009F0100009F0100009F0100009F01000020
:10006000000000009F0100009F0100000000000050
:10007000000000009F0100009F0100005D3C0000A7
:100080009F0100009F0100009F0100009F010000F0
:100090009F0100009F010000000000000000000020
:1000A0009F0100009F010000000000000000000010
:1000B0009F010000000000009F0100009F01000060
:1000C00000F002F800F054F812A030C808382418E4
:1000D0002D18AC4201D100F04BF80FCCA246AB4634
:1000E0000CA730CF2D1B083F3F197C427F1E544484
:1000F0002D090426F441641EAC4201D300F038F807
:100100000126334200D0FB1A3343984754465D46DC
:10011000DFE70000CC600000EC60000000000000A1
:100120007047000000000000002300240025002686
:10013000103A01D378C1FBD8520700D330C100D5A3
:100140000B60704710B5642902D100F09BF810BD18
:10015000632902D100F004FD10BD732902D100F023
:1001600007FD10BD002010BD1FB51FBD10B510BD8F
:1001700000F01AFD1146FFF7F7FF03F037FE00F01D
:1001800032FD03B4FFF7F2FF03BC03F0B5FD00003E
:1001900006480047FEE7FEE7FEE7FEE7FEE7FEE76C
:1001A00003480449024A044B70470000C1000000A4
:1001B000401F202040202020401F20200FB41CB5CD
:1001C000074B06AA7B4469460090059800F0A5FC01
:1001D0000020694600F0B4FC1CBC08BC04B0184701
:1001E0007909000070B5044685690068C10601D52B
:1001F000302600E02026C00707D070BD6268304678
:10020000A1689047206A401C20626D1EF6D570BD23
:1002100070B5044685690078C00707D170BD626873
:10022000A16820209047206A401C20626D1EF6D5F0
:1002300070BD70B50C460546012A05D028788006A9
:1002400000D5EA69002302E0012305E05B1C93422C
:1002500002D2E05C0028F9D1A869E618C01AA861AA
:10026000286AC01828622846FFF7BCFF04E06A68C5
:100270002078A968641C9047B442F8D32846FFF759
:10028000C7FF70BDF7B5002575291068009914A641
:1002900011D0C046C046002802DA404211A608E04C
:1002A000009909688A0701D50FA602E0490704D51D
:1002B0000EA6012501E0C046C046009F0024243759
:1002C00004E000F059FC30313955641C0028F8D1A5
:1002D0002B4632462146009800F0C2FBFEBD0000CE
:1002E000000000002D0000002B0000002000000096
:1002F000F3B50446002081B020622046E1688847BB
:1003000000287DD0252802D06268A16883E0454F8F
:1003100000257F442046E16888472028064608DB00
:10032000312E06D2B81920380078002801D00543B4
:10033000F0E7A80701D5042085430020E0610746C7
:10034000A0612A2E0AD0304604F0E9F8002827D010
:10035000B8000019303E0090866119E00298BA009A
:10036000121902C8916102902046E1688847012F66
:10037000064617D1E06900281FDA202085431CE0DB
:1003800000980A21806948430099801930388861B3
:100390002046E1688847064604F0C1F80028EFD1FE
:1003A000012F0AD02E2E08D12046E1688847064644
:1003B000202005437F1C022FC3DBA069002803DA3D
:1003C0004042A06101200543E80701D01020854389
:1003D000002E24D030464138192803D80120C0020D
:1003E00005432036204625603146029A1546FFF720
:1003F000A9FE00280CD0012807D0ED1DE80800E078
:100400000DE0C0000830029077E72D1D029574E7DB
:1004100062683046A1689047206A401C6CE7206AF9
:10042000FEBD00002244000010B5044603E003F0C6
:10043000CBFC401C08D020780549641C0028F6D16C
:100440000A2003F0C1FC10BD0020C04310BD000015
:10045000481D202070477047704700000246C80FB3
:10046000C00781434B0030B54B405B009B0D20D053
:100470001923DB06C91801231B05994220DB03243D
:10048000A40704251346AB400BD3002B04D1EB0685
:1004900013409B00E34204D4012464070023121993
:1004A0005941FF231B0599420BD2C9000143500F4C
:1004B00009E0CB0204D501430803024305D00548F7
:1004C00030BDFF21C905084330BD08460721090595
:1004D000884330BD0000C07F10B50B1E01D0202323
:1004E00001E0011E2BD00C0C01D10904103B0C0EB5
:1004F00001D10902083B0C0F01D109011B1F8C0F10
:1005000001D189009B1E002901DB49005B1E0446C6
:10051000DC4021431C05A4182022D21A90404B0530
:10052000C20AC90A1A430919830501D143081840B0
:100530001623984002D30020521C4141104610BDA2
:10054000CA0FD20703D00B46002140429941024B0B
:100550001A43C1E7004ABFE70000D041F0B58B4C19
:100560000F09254689B0BD437BD01D092646AE4301
:10057000FAD00E465E402740F60F3E43254071D02C
:1005800024012142FBD0FF24AD19A4042D1B0395A7
:1005900001252D05DB02DB0AC9022B43C90A2943C9
:1005A0001E010901040F130F050121431701880BD8
:1005B000820391432D098C46A90B1E438A03954360
:1005C000B30B9A0396433F09BA0B9403A7430296D1
:1005D0002E467E430497B6464E19D7190C4601960F
:1005E000544305977E43371B7646BF1B3601B646FC
:1005F000BE0B361900967646BC043719009C01D311
:10060000641C00946400002F01D001263443029E34
:10061000049F754366467E430496760034196E0047
:1006200034190094029C019E1C196643751BAE464A
:10063000069465464519059C05956C4359437546D6
:100640000891691A0191049E01465143A41B04912B
:10065000611A009C0791E10605D06109012211434E
:1006600002E072E06EE06109089D00272C0A2D0669
:100670006918049D7C412A0A2D066918019D624172
:10068000AC0DAD026D185441079A910D92025519A7
:100690006141029A644658435443069B059A5A4363
:1006A000121A131B9A0E9B015B187A41010B00056D
:1006B000C3185141220A200644195A419A4200D2D5
:1006C000491C01204002814203D315230226F64330
:1006D00002E014230326F6432020C51AA94017463A
:1006E000AF40DA400A4320460399D84009147318F2
:1006F00019055118039A3843D2075140AC4009D02C
:100700000122944006D30022401C5141002C01D10B
:10071000400840001E4A934212D3012203989206D9
:10072000904207DB0520400709181A480143C01210
:10073000414004E0032040070818C10FC90700200A
:1007400009B0F0BD0020F107FAE705180C464C414E
:1007500011486D42A04115D394181A465A410E48CB
:10076000644290410ED301204A004005824209D3E1
:100770005A00824206D35940C90F084AC9070020CF
:100780001143DDE700200649DAE700000000FF071B
:10079000FE070000FFFFFF7F0000E0FF0000F07F8A
:1007A0000000F87FF0B5FF252D04C609C209FF2718
:1007B00004462E400137CB093E4348402A402B4097
:1007C0000746002A6BD0002B69D0AA4267D0AB4203
:1007D00065D0002800DA32460125ED0529432C4377
:1007E00009022002090AD21A4B0C7F24E31A434C57
:1007F000000A7C44E35C7D242404121914145B0079
:10080000A218884201D3521C00E0400049420C4625
:100810005C4324115C43DB016415E318040A5C4368
:10082000C502200D0C4644436419250A5D43230389
:10083000EC0C0D46654300030019EB184C42A34233
:1008400001D35B18401CD4052018002B07D05B0097
:10085000C91804D3401C002901D1400840003F21A1
:1008600089048A4209D3002A08DC1106090F04D042
:10087000032149074018C00FC007F0BD0122410005
:10088000120689187F2252069142F6D205214907A5
:10089000C84201D59010F0BDFF20C005F0BD002F6B
:1008A00000DA32461648AA4207D2AB4205D21902F4
:1008B000090E17D0F80FC007F0BDFF2563002D0605
:1008C000AB42F9D84900A942F6D8AB4201D1A942BE
:1008D000F2D0A94201D1002101E061004908D00510
:1008E0000843F0BD1102090EFBD0FF200243D005E2
:1008F000F0BD0A460146104654E70000533F000091
:100900000000C07F10B501469E240002CA15A3074F
:10091000002A02D01843002A04DBA21A002A0CDDA8
:10092000D04010BD1206120E01D140004008A21A9C
:1009300003D4D04040420028F3DDFF2248001206D5
:10094000904201D9002010BDC817C043584010BDC7
:100950000102C21504D00123DB071943002A0ADB78
:100960009E239A1A02D40846D0407047FF224100C5
:100970001206914201D900207047C017C04370474A
:100980001F22030C02D10F2200041CD0030E01D140
:100990000002083A030F01D10001121F830F01D199
:1009A0008000921E002801DB4000521ED205511823
:1009B000021251181922904004D3491C002801D179
:1009C0004908490008467047C10FC90700D0404296
:1009D000012292071143D3E701218907D0E710B51F
:1009E0000346080001D0202001E0190002D00C0CC1
:1009F00002D003E0084610BD090410380C0E01D1E6
:100A0000090208380C0F01D10901001F8C0F01D118
:100A10008900801E002901DB4900401E1C46C4409D
:100A20002143C405A2182024241A080A8018192278
:100A30009140E0D3A3400B43401C002BDBD1400886
:100A4000400010BDCA0FD20703D00B460021404220
:100A500099419D23DB051A43C1E79D22D205BEE7DC
:100A6000FFB504460D4681B0243000902168880609
:100A700004D51022E0699143216000E00120A842E2
:100A800001DD471B00E000270498A1697A191018BE
:100A9000081AA0612078C00602D42046FFF7A2FB06
:100AA000002608E003986268A168805D9047206A8C
:100AB000401C761C206204988642F3DB2078C00636
:100AC0000AD52046FFF78EFB06E06268A168302059
:100AD0009047206A401C206238467F1E0028F4DCC4
:100AE00007E000986268A168405D9047206A401C5A
:100AF000206228466D1E0028F3DC2046FFF788FBA5
:100B00002078000602D5022005B0F0BD0120FBE7E9
:100B100001694A1C02610878704700B58FB00291E4
:100B200000210591054901937944039111460490F0
:100B30006846FFF7DDFB0FB000BD0000E5FFFFFFDB
:100B40000A681070521C0A60704710B54369002B88
:100B500002D0C046C04601E0FFF76BFB012010BD8C
:100B60001278014624310A7000224A700122ECE713
:100B700011680022D243E8E701468008081A0209FA
:100B80001018020A1018020C1018C008820012185F
:100B90005200891A01E0401C0A390A29FBD2704729
:100BA00000487047901720207546FFF7F9FFAE46C2
:100BB000050069465346C008C000854618B020B5F8
:100BC000FFF7EEFA60BCB64600260027C0C5C0C5D8
:100BD000C0C5C0C5C0C5C0C5C0C5C0C5403D490829
:100BE00049008D46704710B50446C046C0462046B1
:100BF000FFF7C7FA10BD70B58D180478401CA20726
:100C0000920F01D10278401C231106D10378401CB9
:100C100003E00678401C0E70491C521EF9D1002BCF
:100C200015D002780C2634408A1A401C0C2C03D0B4
:100C3000A401121B9B1C08E004782402121B401C18
:100C4000F8E714780C70491C521C5B1EF9D5A942B8
:100C5000D3D3002070BD0000002817D001780029F0
:100C600014D00B4A04E09161581C597800290DD02A
:100C700003461068C007F6D01068C007F3D01068AC
:100C8000C007F0D01068C007F3D1ECE77047C0464A
:100C900008115040F0B581B0F4252E21284600F00F
:100CA000BBF9062003F04CF8F626022100913046ED
:100CB00000F0DEF86D4F7989401A39894143C81731
:100CC000400C0818C4131420385E21181220385E16
:100CD000C00203F04BFB2018444C2060342128460E
:100CE00000F09AF90A2003F02BF80321304600F0B7
:100CF000BFF800997A5E2168204BC9184A43D21286
:100D00000E23FC5E0B464B431B0B5C43E412121993
:100D100000243C5FA4001219921C9210821A1848F9
:100D2000504304243C5F4C4361130C243C5F5C4300
:100D30002314C918891C89100123DB03C918FB88F7
:100D40004B43D90B002804D40E48504303F0ECFA6F
:100D500002E003F0E9FA40000B4941430914021292
:100D600052430A4B53431A0C8918094A891809112E
:100D70000818FFF729FE01B0F0BDC04660F0FFFF84
:100D800050C30000A086010031E3FFFFDE0B00002E
:100D9000CF0E000010B5F4202E2100F03DF9062002
:100DA00002F0CEFFF620022100F062F82F4A5189AE
:100DB000401A11894143C817400C0818C413142065
:100DC000105E21181220105EC00203F0CFFA201826
:100DD000064908600830C117090F40180011FFF7D5
:100DE000F3FD034903F0E8FB10BDC046F0172020D7
:100DF000CDCCCC3DB0B5AA200224214600F038F875
:100E00001A4D2880AC20214600F032F86880AE20D0
:100E1000214600F02DF8A880B020214600F028F8E7
:100E2000E880B220214600F023F82881B420214632
:100E300000F01EF86881B620214600F019F8A8815C
:100E4000B820214600F014F8E881BA20214600F0CD
:100E50000FF82882BC20214600F00AF86882BE20E4
:100E6000214600F005F8A882B0BDC0469C1E202097
:100E7000F0B589B0019007AA002090800790002962
:100E800000D1ABE00027584C584E0297009132E059
:100E90000298440002F062FA07A9085304983060EF
:100EA000514C039D2560256405982061256105202E
:100EB000069002F067FF256005982060069802F012
:100EC00061FF0598206125600499316025602564E3
:100ED000206125612060069802F054FF2560069885
:100EE00002F050FF059802F02BFF0298401C009979
:100EF000029088425ED081200490306002252560F7
:100F0000256425600520069002F03CFF0120059035
:100F10002060069802F036FF03952561069D28465D
:100F200002F030FF05982061284602F02BFFEE20EA
:100F300002F004FC00F0C2FA002802D02CA0FFF757
:100F400073FA019802990818C0B202F0F7FB00F09A
:100F5000B5FA002802D02BA0FFF766FA38460690B3
:100F6000059C204602F0ECFE049830601E4E039D66
:100F70003560356435600527384602F003FF34607C
:100F8000384602F0FFFE3561384602F0FBFE346160
:100F9000069C164E384602F0F5FEEF2002F0CEFB1E
:100FA000671C00F08BFA002800D171E7042C38464A
:100FB000D5DB6DE7032908D0022911D107A84188A4
:100FC00000880002084309B0F0BD0798000407A993
:100FD0004A881202024388881043000A09B0F0BD13
:100FE000002009B0F0BDC04690120A40088042407F
:100FF000526561645F526567204E41434B202D313D
:101000000D000000526561645F526567204E4143E8
:101010004B202D320D000000F0B583B001910090FF
:101020002448812102910160234F02253D603D64E7
:101030003D600526304602F0A5FE01243C603046A6
:1010400002F0A0FE3D61304602F09CFE3C6130465D
:1010500002F098FEEE2002F071FB00F02FFA00285B
:1010600002D016A0FFF7E0F9009802F067FB00F04D
:1010700025FA002802D016A0FFF7D6F9019802F051
:101080005DFB00F01BFA002802D016A0FFF7CCF998
:101090000848029901603D603D643C613D613C60EF
:1010A0000524204602F06EFE3D60204602F06AFEF6
:1010B00003B0F0BD0880424090120A405772697434
:1010C000655F436D64204E41434B202D310D000080
:1010D00057726974655F436D64204E41434B202D08
:1010E000320D000057726974655F436D64204E4194
:1010F000434B202D330D000080B5094804210160C9
:101100000848082101600848016001208002074961
:101110000A6802430A6006A0FFF786F980BDC04650
:10112000D0320A4080E200E000E100E028105040A8
:10113000426C7565746F6F74685F496E6974207373
:10114000756363656564210D00000000F0B583B030
:1011500001204402514D2C61132002F0F1FD2C605E
:10116000142002F00FFE4E494E4808604E4E306883
:10117000800508D45025012002F004FE306820428A
:1011800001D16D1EF7D83068204208D050250120CB
:1011900002F0F8FD3068204201D06D1EF7D800271C
:1011A0003D4602970DE0029AD00F019949000D18B3
:1011B000500000998905C90F411802917F1C282F02
:1011C0001ED001953068204208D15025012002F040
:1011D000D9FD3068204201D16D1EF7D81C2002F0E5
:1011E000D1FD3068009030682042DCD050250120CD
:1011F00002F0C8FD30682042D5D06D1EF7D8D2E786
:101200008121274A116025490C600C640C600C6038
:10121000020A010C000E2B02C6180298301A40195F
:1012200040188018000604D020A0FFF7FDF8002425
:1012300030E02806141828040818C0B200273946E0
:10124000FFF700FC01950546E0B23946FFF778F953
:10125000194A1A4BFFF782F9FFF700F901462846B1
:1012600003F064F9944908600198C0B23946FFF769
:10127000E9FB0546F0B23946FFF762F90E4A0F4B1B
:10128000FFF76CF9FFF7EAF80146284603F04EF93C
:1012900086490860204603B0F0BDC04690120A405F
:1012A000508042408100040080130A404552524F52
:1012B0005221210D000000009A9999999999B93FFE
:1012C000811E091F00BFFCD270470000F0B52A4AFA
:1012D00082182A4BC318087920280DD000281DD168
:1012E0000C68641E5460D56E254C25408835D56643
:1012F0001646703688251DE00C68641E5460D46E56
:101300001F4D2C401F4EA419D466146F2C40A419F5
:101310001467012465071C4C16460BE00C68640832
:101320005460D66E164C26400525ED017619D6661A
:1013300016467036376827402F433760D46A134DFE
:101340002C40D462146B2C4014630024D4641465C4
:101350008F24E443D56F2540D5671D6825401D6067
:1013600049790143BD2008401168094B0B40C01862
:10137000801C1060F0BDC0460418000084180000F6
:1013800024F93FF001040000FFFFFFCF8888FDFF34
:101390004000FFCF10B507239B041940920080182E
:1013A000024A84589C436118815010BD30180000D7
:1013B00010B5029CA400001911431943014A815041
:1013C00010BDC0465018000092008018014A81509C
:1013D0007047C0461018000010B501221203831890
:1013E0000C789C604B7883508978014A815010BDFD
:1013F0000C110000B0B51122120283580124A3433E
:1014000083500B888C781C438B882343094C1C40E9
:101410008358094D1D40631983508B79CC791C4347
:10142000097A21437E231940801842689A43511853
:101430004160B0BD18670000E798FDFF10B50122BC
:10144000120383180C789C604978815010BD80B5D8
:1014500000F0C4F8462002F071F900F02FF80028DF
:1014600008D1012002F06AF900F028F8002801D123
:1014700000F0D2F80A2002F063FC00F0AFF846203A
:1014800002F05CF900F01AF8002800D080BD1020AE
:1014900002F054F900F012F80028F7D100F0BCF87F
:1014A00080BD0000014800687047C046901E2020A3
:1014B000014800687047C046381F2020F0B581B051
:1014C000614E01243461022737605E49324808606A
:1014D0000525284602F056FC3460284602F052FCEE
:1014E0002E4D2868800735D5052002F04BFC286872
:1014F00080072FD5052002F045FC2868800729D5F4
:10150000052002F03FFC2868800723D5052002F063
:1015100039FC286880071DD5052002F033FC2868B7
:10152000800717D5052002F02DFC2868800711D50B
:10153000052002F027FC286880070BD5052002F063
:1015400021FC2868800705D5052002F01BFC2868CF
:1015500080070AD40120306181203A490860376051
:1015600037640024204601B0F0BD0520009002F051
:1015700009FC28688120334908603760376434618A
:1015800037613460009D284602F0FCFB3760284636
:1015900002F0F8FBE6E7C0468100040080130A4031
:1015A000F0B581B00446274881210160264D02260E
:1015B0002E602E6401272F612E61052002F0E2FBD0
:1015C000002C01D02E6000E02E612F60052002F07B
:1015D000D9FB2F612E6001B0F0BDC046F0B581B0DF
:1015E000184881210160184D02262E602E642E605D
:1015F0000524204602F0C6FB01272F60204602F09A
:10160000C1FB2E61204602F0BDFB2F61204602F097
:10161000B9FB01B0F0BDC04670B50A488121016038
:10162000094D02262E602E64012028612E6128605B
:101630000524204602F0A6FB2E60204602F0A2FB05
:1016400070BDC0460880424090120A4004480549D7
:1016500001600548054901600165C165C1667047C3
:1016600000280A40010000266480424081000500F5
:1016700070B5154E3068154C204042424241144D21
:1016800029780A4307D0424242410A400020012AF9
:1016900000D1287070BD142002F052FB31680C405C
:1016A0000BD001202870CA05F4D4080307D4C8025F
:1016B00007D4A10D0420084070BD002070BD022099
:1016C00070BD032070BDC04680330A400001180180
:1016D000BE182020B0B5FFF781FF472002F02EF89A
:1016E000FFF7ECFE01F03AFE04460020FFF758FF3A
:1016F00001F034FE05460120FFF752FF2002401999
:10170000FFF76AF90349FFF74DF80446FFF784FF36
:101710002046B0BD9A99993FB0B502480346F833C8
:10172000802401E0BF182020002119701A46083AD1
:1017300011701A46103A11701A46183A11701A466A
:10174000203A11701A46283A11701A46303A117030
:101750001A46383A11701A46403A11701A46483AF9
:1017600011701A46503A11701A46583A11701A46BA
:10177000603A11701A46683A11701A46703A117040
:101780001A46783A11701A46803A11701A46883A09
:1017900011701A46903A11701A46983A11701A460A
:1017A000A03A11701A46A83A11701A46B03A117050
:1017B0001A46B83A11701A46C03A11701A46C83A19
:1017C00011701A46D03A11701A46D83A11701A465A
:1017D000E03A11701A46E83A11701A46F03A117060
:1017E0001A46F83A1170012212029B18203C9BD134
:1017F0000446F934802321702546083D297025468A
:10180000103D29702546183D29702546203D297038
:101810002546283D29702546303D29702546383D0E
:1018200029702546403D29702546483D29702546AA
:10183000503D29702546583D29702546603D297048
:101840002546683D29702546703D29702546783D1E
:1018500029702546803D29702546883D29702546FA
:10186000903D29702546983D29702546A03D297058
:101870002546A83D29702546B03D29702546B83D2E
:1018800029702546C03D29702546C83D297025464A
:10189000D03D29702546D83D29702546E03D297068
:1018A0002546E83D29702546F03D2970A518F83CED
:1018B0002170203B2C469ED10446FA3480232170AF
:1018C0002546083D29702546103D29702546183DBE
:1018D00029702546203D29702546283D297025463A
:1018E000303D29702546383D29702546403D2970F8
:1018F0002546483D29702546503D29702546583DCE
:1019000029702546603D29702546683D2970254689
:10191000703D29702546783D29702546803D297007
:101920002546883D29702546903D29702546983DDD
:1019300029702546A03D29702546A83D29702546D9
:10194000B03D29702546B83D29702546C03D297017
:101950002546C83D29702546D03D29702546D83DED
:1019600029702546E03D29702546E83D2970254629
:10197000F03D2970A518F83C2170203B2C469ED1E3
:101980000446FB34802321702546083D29702546F6
:10199000103D29702546183D29702546203D2970A7
:1019A0002546283D29702546303D29702546383D7D
:1019B00029702546403D29702546483D2970254619
:1019C000503D29702546583D29702546603D2970B7
:1019D0002546683D29702546703D29702546783D8D
:1019E00029702546803D29702546883D2970254669
:1019F000903D29702546983D29702546A03D2970C7
:101A00002546A83D29702546B03D29702546B83D9C
:101A100029702546C03D29702546C83D29702546B8
:101A2000D03D29702546D83D29702546E03D2970D6
:101A30002546E83D29702546F03D2970A518F83C5B
:101A40002170203B2C469ED10446FC34802321701B
:101A50002546083D29702546103D29702546183D2C
:101A600029702546203D29702546283D29702546A8
:101A7000303D29702546383D29702546403D297066
:101A80002546483D29702546503D29702546583D3C
:101A900029702546603D29702546683D29702546F8
:101AA000703D29702546783D29702546803D297076
:101AB0002546883D29702546903D29702546983D4C
:101AC00029702546A03D29702546A83D2970254648
:101AD000B03D29702546B83D29702546C03D297086
:101AE0002546C83D29702546D03D29702546D83D5C
:101AF00029702546E03D29702546E83D2970254698
:101B0000F03D2970A518F83C2170203B2C469ED151
:101B10000446FD34802321702546083D2970254662
:101B2000103D29702546183D29702546203D297015
:101B30002546283D29702546303D29702546383DEB
:101B400029702546403D29702546483D2970254687
:101B5000503D29702546583D29702546603D297025
:101B60002546683D29702546703D29702546783DFB
:101B700029702546803D29702546883D29702546D7
:101B8000903D29702546983D29702546A03D297035
:101B90002546A83D29702546B03D29702546B83D0B
:101BA00029702546C03D29702546C83D2970254627
:101BB000D03D29702546D83D29702546E03D297045
:101BC0002546E83D29702546F03D2970A518F83CCA
:101BD0002170203B2C469ED10446FE348023217088
:101BE0002546083D29702546103D29702546183D9B
:101BF00029702546203D29702546283D2970254617
:101C0000303D29702546383D29702546403D2970D4
:101C10002546483D29702546503D29702546583DAA
:101C200029702546603D29702546683D2970254666
:101C3000703D29702546783D29702546803D2970E4
:101C40002546883D29702546903D29702546983DBA
:101C500029702546A03D29702546A83D29702546B6
:101C6000B03D29702546B83D29702546C03D2970F4
:101C70002546C83D29702546D03D29702546D83DCA
:101C800029702546E03D29702546E83D2970254606
:101C9000F03D2970A518F83C2170203B2C469ED1C0
:101CA000FF30802301700446083C21700446103C3C
:101CB00021700446183C21700446203C21700446E3
:101CC000283C21700446303C21700446383C217089
:101CD0000446403C21700446483C21700446503C78
:101CE00021700446583C21700446603C2170044633
:101CF000683C21700446703C21700446783C217099
:101D00000446803C21700446883C21700446903C87
:101D100021700446983C21700446A03C2170044682
:101D2000A83C21700446B03C21700446B83C2170A8
:101D30000446C03C21700446C83C21700446D03C97
:101D400021700446D83C21700446E03C21700446D2
:101D5000E83C21700446F03C21708418F83801708A
:101D6000203B20469ED100F057FEB0BDF0B583B0B9
:101D700001267405FC4F3C60C82001F0E1FF3D46A0
:101D8000103D2C603346B0053860042139603603BD
:101D90003E609A032A602E603E603A602E603E608C
:101DA0002A602E603E603A602E603E602A602E609F
:101DB0003E602A602E603E602A602E603E603A607F
:101DC0002E6029602860386039603E603A602E607D
:101DD0003E603A602E603E603A602E603E603A603F
:101DE0002E603E603A602E603E603A602E603E603B
:101DF0003A602E603E603A602E602960286038604C
:101E000039603E603A602E603E603A602E603E600F
:101E10003A602E603E602A602E603E603A602E601E
:101E20003E603A602E603E603A602E603E603A60EE
:101E30002E6029602860386039603E603A602E600C
:101E40003E602A602E603E603A602E603E603A60DE
:101E50002E603E603A602E603E603A602E603E60CA
:101E60003A602E603E603A602E60296028603860DB
:101E700039603E602A602E603E603A602E603E60AF
:101E80003A602E603E603A602E603E603A602E609E
:101E90003E603A602E603E603A602E603E602A608E
:101EA0002E6029602860386039603E602A602E60AC
:101EB0003E602A602E603E603A602E603E603A606E
:101EC0002E603E602A602E603E602A602E603E607A
:101ED0002A602E603E602A602E602960286038608B
:101EE00039603E602A602E603E603A602E603E603F
:101EF0002A602E603E603A602E603E603A602E603E
:101F00003E603A602E603E603A602E603E602A601D
:101F10002E6029602860386039603E602A602E603B
:101F20003E602A602E603E603A602E603E603A60FD
:101F30002E603E602A602E603E603A602E603E60F9
:101F40003A602E603E603A602E60296028603860FA
:101F500039603E602A602E603E603A602E603E60CE
:101F60002A602E603E603A602E603E603A602E60CD
:101F70003E602A602E603E602A602E603E603A60BD
:101F80002E6029602860386039603E602A602E60CB
:101F90003E603A602E603E602A602E603E603A608D
:101FA0002E603E602A602E603E603A602E603E6089
:101FB0003A602E603E603A602E602960286038608A
:101FC00039603E603A602E603E603A602E603E604E
:101FD0002A602E603E602A602E603E602A602E607D
:101FE0003E602A602E603E602A602E603E602A605D
:101FF0002E6029602860386039603E602A602E605B
:102000003E602A602E603E603A602E603E602A602C
:102010002E603E603A602E603E603A602E603E6008
:102020002A602E603E602A602E6029602860386039
:1020300039603E603A602E603E603A602E603E60DD
:102040003A602E603E603A602E603E603A602E60DC
:102050003E603A602E603E603A602E603E603A60BC
:102060002E6029602860386039603E602A602E60EA
:102070003E602A602E603E603A602E603E602A60BC
:102080002E603E603A602E603E602A602E603E60A8
:102090003A602E603E602A602E60296028603860B9
:1020A00039603E602A602E603E603A602E603E607D
:1020B0003A602E603E603A602E603E603A602E606C
:1020C0003E603A602E603E603A602E603E603A604C
:1020D0002E6029602860386039603E602A602E607A
:1020E0003E602A602E603E603A602E603E602A604C
:1020F0002E603E602A602E603E603A602E603E6038
:102100003A602E603E602A602E6029602860386048
:1021100039603E602A602E603E602A602E603E601C
:102120002A602E603E602A602E603E603A602E601B
:102130003E603A602E603E603A602E603E602A60EB
:102140002E6029602860386039603E602A602E6009
:102150003E602A602E603E603A602E603E602A60DB
:102160002E603E6002E0C046A0120A402A602E6047
:102170003E603A602E603E602A602E603E603A60AB
:102180002E6029602860386039603E603A602E60B9
:102190003E603A602E603E603A602E603E602A608B
:1021A0002E603E603A602E603E603A602E603E6077
:1021B0002A602E603E603A602E6029602860386098
:1021C00039603E602A602E603E602A602E603E606C
:1021D0003A602E603E602A602E603E602A602E606B
:1021E0003E603A602E603E602A602E603E602A604B
:1021F0002E6029602860386039603E603A602E6049
:102200003E602A602E603E603A602E603E603A601A
:102210002E603E603A602E603E603A602E603E6006
:102220003A602E603E603A602E6029602860386017
:1022300039603E603A602E603E603A602E603E60DB
:102240002A602E603E603A602E603E603A602E60EA
:102250003E603A602E603E603A602E603E603A60BA
:102260002E6029602860386039603E603A602E60D8
:102270003E603A602E603E603A602E603E603A609A
:102280002E603E603A602E603E603A602E603E6096
:102290002A602E603E603A602E60296028603860B7
:1022A00039603E602A602E603E603A602E603E607B
:1022B0003A602E603E603A602E603E602A602E607A
:1022C0003E602A602E603E603A602E603E602A606A
:1022D0002E6029602860386039603E603A602E6068
:1022E0003E603A602E603E603A602E603E602A603A
:1022F0002E603E603A602E603E602A602E603E6036
:102300003A602E603E603A602E6029602860386036
:1023100039603E602A602E603E603A602E603E600A
:102320002A602E603E603A602E603E603A602E6009
:102330003E602A602E603E603A602E603E603A60E9
:102340002E6029602860386039603E602A602E6007
:102350003E603A602E603E602A602E603E603A60C9
:102360002E603E603A602E603E602A602E603E60C5
:102370002A602E603E6000923A602E6001912960D2
:10238000029028601846024F3B46F833802401E053
:10239000BF182020002119701A46083A11701A46F9
:1023A000103A11701A46183A11701A46203A1170F4
:1023B0001A46283A11701A46303A11701A46383ABD
:1023C00011701A46403A11701A46483A11701A466E
:1023D000503A11701A46583A11701A46603A117004
:1023E0001A46683A11701A46703A11701A46783ACD
:1023F00011701A46803A11701A46883A11701A46BE
:10240000903A11701A46983A11701A46A03A117013
:102410001A46A83A11701A46B03A11701A46B83ADC
:1024200011701A46C03A11701A46C83A11701A460D
:10243000D03A11701A46D83A11701A46E03A117023
:102440001A46E83A11701A46F03A11701A46F83AEC
:10245000117002029B18203C9CD13846F930802331
:1024600001700446083C21700446103C217004466B
:10247000183C21700446203C21700446283C217001
:102480000446303C21700446383C21700446403CF0
:1024900021700446483C21700446503C217004469B
:1024A000583C21700446603C21700446683C217011
:1024B0000446703C21700446783C21700446803C00
:1024C00021700446883C21700446903C21700446EB
:1024D000983C21700446A03C21700446A83C217021
:1024E0000446B03C21700446B83C21700446C03C10
:1024F00021700446C83C21700446D03C217004463B
:10250000D83C21700446E03C21700446E83C217030
:102510000446F03C21708418F8380170203B2046B6
:102520009ED13C46FA348023217020460838017041
:102530002046103801702046183801702046203897
:10254000017020462838017020463038017020463E
:1025500038380170204640380170204648380170F4
:1025600020465038017020465838017020466038A7
:10257000017020466838017020467038017020468E
:102580007838017020468038017020468838017004
:102590002046903801702046983801702046A038B7
:1025A00001702046A83801702046B03801702046DE
:1025B000B83801702046C03801702046C838017014
:1025C0002046D03801702046D83801702046E038C7
:1025D00001702046E83801702046F0380170A018DC
:1025E000F83C2170203B04469ED13C46FB348023BE
:1025F00021702046083801702046103801702046AE
:1026000018380170204620380170204628380170A3
:102610002046303801702046383801702046403856
:10262000017020464838017020465038017020461D
:1026300058380170204660380170204668380170B3
:102640002046703801702046783801702046803866
:10265000017020468838017020469038017020466D
:10266000983801702046A03801702046A8380170C3
:102670002046B03801702046B83801702046C03876
:1026800001702046C83801702046D03801702046BD
:10269000D83801702046E03801702046E8380170D3
:1026A0002046F0380170A018F83C2170203B044609
:1026B0009ED13C46FC3480232170204608380170AE
:1026C0002046103801702046183801702046203806
:1026D00001702046283801702046303801702046AD
:1026E0003838017020464038017020464838017063
:1026F0002046503801702046583801702046603816
:1027000001702046683801702046703801702046FC
:102710007838017020468038017020468838017072
:102720002046903801702046983801702046A03825
:1027300001702046A83801702046B038017020464C
:10274000B83801702046C03801702046C838017082
:102750002046D03801702046D83801702046E03835
:1027600001702046E83801702046F0380170A0184A
:10277000F83C2170203B04469ED13C46FD3480232A
:10278000217020460838017020461038017020461C
:102790001838017020462038017020462838017012
:1027A00020463038017020463838017020464038C5
:1027B000017020464838017020465038017020468C
:1027C0005838017020466038017020466838017022
:1027D00020467038017020467838017020468038D5
:1027E00001702046883801702046903801702046DC
:1027F000983801702046A03801702046A838017032
:102800002046B03801702046B83801702046C038E4
:1028100001702046C83801702046D038017020462B
:10282000D83801702046E03801702046E838017041
:102830002046F0380170A018F83C2170203B044677
:102840009ED13C46FE34802321702046083801701A
:102850002046103801702046183801702046203874
:10286000017020462838017020463038017020461B
:1028700038380170204640380170204648380170D1
:102880002046503801702046583801702046603884
:10289000017020466838017020467038017020466B
:1028A00078380170204680380170204688380170E1
:1028B0002046903801702046983801702046A03894
:1028C00001702046A83801702046B03801702046BB
:1028D000B83801702046C03801702046C8380170F1
:1028E0002046D03801702046D83801702046E038A4
:1028F00001702046E83801702046F0380170A018B9
:10290000F83C2170203B04469ED1FF37802339706C
:102910003846083801703846103801703846183883
:102920000170384620380170384628380170384622
:1029300030380170384638380170384640380170F8
:102940003846483801703846503801703846583893
:102950000170384660380170384668380170384672
:102960007038017038467838017038468038017008
:1029700038468838017038469038017038469838A3
:1029800001703846A03801703846A83801703846C2
:10299000B03801703846B83801703846C038017018
:1029A0003846C83801703846D03801703846D838B3
:1029B00001703846E03801703846E8380170384612
:1029C000F0380170B818F83F3970203B07469ED1A7
:1029D00000F022F8404802990160019A0260066006
:1029E000009B2B602E60066003602E6006602B60EB
:1029F0002E60066003602E6006602B602E6006600D
:102A00002B602E6006602B602E6006602B602E60AF
:102A10002A60296003B0F0BDF0B585B00120040341
:102A200081030291800501900020C54D2A4E04903B
:102A30005038C0B2002100F045FC019B33600420F7
:102A400030603460029A3260314610390C60346074
:102A500032600C60346032600C60346032600C6054
:102A6000346032600C60346032600C60346032601C
:102A70000C60346032600C6008600B603360306062
:102A8000346032600C60346032600C6034603260FC
:102A90000C6034600A600C60346032600C6034603A
:102AA00032600C60346032600C60346032600C6004
:102AB00008600B60802703952878012100F002FC54
:102AC0007F1E0835002FF7D1039D6D1C0498401C14
:102AD0000828ACD105B0F0BDA0120A40F0B58BB00B
:102AE0000A9103900620082B04460AD05C07D908F7
:102AF000002C00D0491C5C084C43E4B2002C00D1EF
:102B000013E1109F203AD1B20091484388490A1836
:102B1000580801900025039E0293089709E0064695
:102B2000079C049A069D641E521C6D1C002C00D14B
:102B3000FBE0082B104615D0182B09D0102B0CD019
:102B40000C2B00D0F1E00C20009948437B4907E0B2
:102B5000242000994843774902E000980001764913
:102B600008184019099006950492079407230A9AB9
:102B7000104618400125294681400596F0B2C00054
:102B8000F84C2018D2B2D408065D32460A438E4370
:102B9000002F114600D03146002F00D016460022EB
:102BA000099FBA560992D20700D0314601550A99B9
:102BB000491CCAB219402F468F40D408065D3146E1
:102BC0003943BE43089F002F0A4600D03246002FEB
:102BD00000D00E460999890700D5324602550A9958
:102BE000891CCAB219402F468F40D408065D314671
:102BF0003943BE43089F002F0A4600D03246002FBB
:102C000000D00E460999490700D5324602550A9967
:102C1000C91CCAB219402F468F40D408065D314600
:102C20003943BE43089F002F0A4600D03246002F8A
:102C300000D00E460999090700D5324602550A9977
:102C4000091DCAB219402F468F40D408065D31468F
:102C50003943BE43089F002F0A4600D03246002F5A
:102C600000D00E460999C90600D5324602550A9988
:102C7000491DCAB219402F468F40D408065D31461F
:102C80003943BE43089F002F0A4600D03246002F2A
:102C900000D00E460999890600D5324602550A9998
:102CA000891DCAB219402F468F40D408065D3146AF
:102CB0003943BE43089F002F0A4600D03246002FFA
:102CC00000D00E460999490600D5324602550A99A8
:102CD000C91D0B409D40C9B2CC08025D1146A943F5
:102CE0001543002F0A4600D02A46002F029B059E5E
:102CF00000D00D460999002900D42A460255701CBF
:102D0000082B00D10BE7C1B2039A891A019A9142AC
:102D1000079C02D10A9A08320A92049A019DA9429C
:102D2000039E00D1FEE60646FCE60BB0F0BDC046B1
:102D30008947000015540000254E0000B1490000ED
:102D4000BF182020F0B58DB00C915907DB08002981
:102D500000D05B1C002B00D102E1139D129904915D
:102D6000511EC9B2491C00910024064603940692E4
:102D7000059001930A950AE00099039BCB180393F1
:102D8000019B029C641CE1B2994200D3E8E0002A56
:102D9000F8D0029400230399099106E00999491C8F
:102DA00009915B1CD9B29142E6D2079307200C9B94
:102DB00019460140012422468A400896F1B2C90012
:102DC000684E7718D9B2CB08FE5C31461143964362
:102DD000002D0A4600D03246002D00D00E4609993B
:102DE00089B2049D69560B91C90700D03246FA5446
:102DF0000C99491CCAB2014025468D40D308FE5C9F
:102E000032462A43AE430A9D002D114600D031467A
:102E1000002D00D016460B9A920700D53146F95482
:102E20000C99891CCAB2014025468D40D308FE5C2E
:102E300031462943AE430A9D002D0A4600D0324652
:102E4000002D00D00E460B99490700D53246FA54A2
:102E50000C99C91CCAB2014025468D40D308FE5CBE
:102E600031462943AE430A9D002D0A4600D0324622
:102E7000002D00D00E460B99090700D53246FA54B2
:102E80000C99091DCAB2014025468D40D308FE5C4D
:102E900031462943AE430A9D002D0A4600D03246F2
:102EA000002D00D00E460B99C90600D53246FA54C3
:102EB0000C99491DCAB2014025468D40D308FE5CDD
:102EC00031462943AE430A9D002D0A4600D03246C2
:102ED000002D00D00E460B99890600D53246FA54D3
:102EE0000C99891DCAB2014025468D40D308FE5C6D
:102EF00031462943AE430A9D002D0A4600D0324692
:102F0000002D00D00E460B99490600D53246FA54E2
:102F10000C99C91D08408440C8B2C0083A5C1146EB
:102F2000A1431443002D0A4600D02246002D089BE1
:102F300000D00C460B99002900D422463A545C1C60
:102F4000E1B20598091A069A914202D10C9B083306
:102F50000C93079B9142064600D11FE726461DE7CA
:102F60000DB0F0BDBF182020F0B583B0064617782D
:102F700038462038C0B25E281CD8082B01D05D0826
:102F800000E0062508980190541C029501980090D5
:102F9000F0B2FAB20D461F46FFF7A0FD3B462946A8
:102FA000029D7619601C27783A46203AD2B25F2AF1
:102FB0000446EBD303B0F0BDF0B583B00124009418
:102FC0000027864D1026384631462A463346FFF7FD
:102FD000CBFF00942021384601912A463346FFF763
:102FE000C3FF02940094302138462A463346FFF747
:102FF000BBFF7B480078032800D9EDE078440079D6
:103000004000874401324F61A04805686424284687
:10301000214601F089F90246204650432B1A764D8D
:103020009BA12846FDF7CAF80298009000201021C5
:103030002A460B46FFF798FF994805686B480078C9
:10304000002852D0974F2846394601F06DF90646C0
:1030500038467043281A44432046394601F064F943
:103060000346654890A132464EE07F480268624CB4
:103070007EA12046FDF7A2F8029F009700261025AA
:103080003046294622462B46FFF76EFF7A480268F3
:103090007AA12046FDF792F800972021304622467B
:1030A0002B4697E06B480068642101F03DF9024629
:1030B000514C69A12046FDF781F80298009000204C
:1030C000102122460B4685E046480078002824D08F
:1030D000454800783E2500282A4600D0019A4348FA
:1030E000007800281FD0434B1EE07D20C4002846F6
:1030F000214601F019F902464443281B80B26F496A
:103100004143CB0C3C486E49FDF758F802980090BB
:1031100000202021384A10235CE034480078002841
:1031200030D0344A2FE0324B334C34A12046FDF7E7
:1031300045F802980090002610273046394622466E
:103140003B46FFF711FF28480078012800D0019D79
:103150002D480078002801D02D4B00E02B4B2DA1ED
:1031600020462A46FDF72AF82246029C0094304663
:1031700001993B46FFF7F8FE0094302128A2304623
:103180003B4627E01A4A1C4D29A12846FDF716F8B0
:103190000298009000261024304621462A462346F5
:1031A000FFF7E2FE18480078002801D0184A00E036
:1031B000164A22A12846FDF701F8029F0097202118
:1031C00030462A462346FFF7CFFE009730211EA245
:1031D00030462346FFF7C8FE03B0F0BD94610000FF
:1031E000B41D2020371F2020361F2020B21E202093
:1031F000D5610000D9610000C01D202025635072F8
:103200006573733A202573009D1D2020AE61000078
:10321000A561000025634D6F64653A2025730000A9
:10322000454E5445523D5357204553433D580000A9
:103230002050726573733A2025730000204D6F642F
:10324000653A202573000000454E5445523D4544E3
:1032500049540000981E20204C696768743A202564
:1032600064206C7800000000BC1D202054656D7047
:103270003A20256420430000B81D202048756D6960
:103280006474793A2025642025250000B01D202093
:1032900054656D703A2025642E2530326420430039
:1032A000AC1D2020CD8B010050726573733A202530
:1032B000642E253032642061746D0000CDCC000096
:1032C000C661000070B50125AA05234B002901D075
:1032D0001A6000E01A61042119612C031C61AD031E
:1032E00046B2002E01D41D6100E01D601C601C610F
:1032F000460601D41D6100E01D601C601C6186064D
:1033000001D41D6100E01D601C601C61C60601D473
:103310001D6100E01D601C601C61060701D41D6179
:1033200000E01D601C601C61460701D41D6100E0C7
:103330001D601C601C61860701D41D6100E01D60DA
:103340001C601C61C00701D11D6100E01D601C6094
:1033500019601A6070BDC04690120A40F0B587B07F
:103360004D484E4901604E4F01263E6005242046DF
:1033700000F008FD3D46103D2E60204600F002FDA5
:10338000484800680690204600F0FCFC3E6020465D
:1033900000F0F8FC2E60204600F0F4FC414F386845
:1033A0000590204600F0EEFC3D480660204600F007
:1033B000E9FC2E60204600F0E5FC386804902046C9
:1033C00000F0E0FC36480660204600F0DBFC2E6092
:1033D000204600F0D7FC38680390204600F0D2FC6D
:1033E0002F480660204600F0CDFC2E60204600F0FD
:1033F000C9FC38680290204600F0C4FC28480660EA
:10340000204600F0BFFC2E60204600F0BBFC386870
:103410000190204600F0B6FC21480660204600F0EE
:10342000B1FC2E60204600F0ADFC1E480768204627
:1034300000F0A8FC1A480660204600F0A3FC2E60AD
:10344000204600F09FFC17480568204600F09AFCD3
:10345000134806600698420004210A400220059B9A
:1034600003409A189200049B5B000B40D218039B08
:1034700003409A189200029B5B000B40D118019AFE
:1034800002405118490007407818A907C90F0818C9
:10349000C0B207B0F0BDC0460880424081000400C1
:1034A000A0120A4080130A40B0B5164A8523D3649F
:1034B0000121CC051448046053604B030360134B97
:1034C00082241C65124D5D659C63DD638124DC6490
:1034D0006D1E5D631C605C601460946014635463D3
:1034E0009C610C4D1D66D562956395645C610246D6
:1034F000303AC907116001464039074A0A60074956
:103500000160B0BD88804240D0120A400480424031
:1035100082000400810005000752600007526080AD
:10352000F0B581B0194C1A492046FDF755FF1949ED
:103530002046FDF7CBFE184E0025204631462A4690
:10354000FDF742FF0095204629462A462B46FDF707
:103550002FFF204629462A46FDF71CFF012720465B
:1035600031463A46FDF730FF0097204629462A4665
:103570002B46FDF71DFF204629463A46FDF70AFF78
:10358000064887600321016001B0F0BD004008409B
:103590007161000074610000C4090000005108401E
:1035A0000948002101600948014608390A680323D7
:1035B0009A430A6001680122914301601102026886
:1035C0008A4302607047C04608030B4008010B4065
:1035D0000548042101601F214160002181600168CC
:1035E00005220A430260704710E000E010B5154C58
:1035F00015492046FDF722FF14492046FDF7FAFE43
:103600000320C103124802688A43026001692C4A00
:103610000A40D0320261416915220A432A218A43B5
:103620004261416801221140436893435918416047
:103630009102084B1C680C431C6001681143016037
:1036400010BDC046008010407C6100007E6100001B
:10365000009110402890104010B5154C1549204697
:10366000FDF7ECFE14492046FDF7C4FE0320C1031C
:10367000124802688A4302600169114A0A40D03246
:103680000261416915220A432A218A434261416845
:103690000122114043689343591841609102094B3C
:1036A0001C680C431C6001681143016010BDC046DA
:1036B00000005040886100008A6100000011504005
:1036C0000000FFFF2810504080B500F013F8FFF70E
:1036D000EBFEFFF765FFFFF723FFFFF787FFFFF71D
:1036E000BBFFFFF775FF2C20014900220A5480BD63
:1036F000601E2020B0B50A480A4941600A4A51605C
:103700000A4B59600A4C61600A4D69600A490160C0
:1037100011601960216029601020FDF7D1FDB0BD56
:1037200000080A40030000B100280A400048084091
:10373000008810400008504001000026F0B581B01C
:103740004D4A812111604D4F02253D603D640124A9
:103750003C61009040B2002801D43D6100E03D6032
:10376000204600F00FFB3C600526304600F00AFBC7
:103770003C61304600F006FB0098400601D43D61F4
:1037800000E03D60204600F0FDFA3C600526304632
:1037900000F0F8FA3C61304600F0F4FA0098800638
:1037A00001D43D6100E03D60204600F0EBFA3C6052
:1037B0000526304600F0E6FA3C61304600F0E2FAB9
:1037C0000098C00601D43D6100E03D60204600F055
:1037D000D9FA3C600526304600F0D4FA3C61304608
:1037E00000F0D0FA0098000701D43D6100E03D6090
:1037F000204600F0C7FA3C600526304600F0C2FAC9
:103800003C61304600F0BEFA0098400701D43D61AB
:1038100000E03D60204600F0B5FA3C6005263046E9
:1038200000F0B0FA3C61304600F0ACFA0098800736
:1038300001D43D6100E03D60204600F0A3FA3C6009
:103840000526304600F09EFA3C61304600F09AFAB8
:103850000098C00701D13D6100E03D60204600F0C6
:1038600091FA3C600525284600F08CFA3C61284618
:1038700000F088FA01B0F0BD0880424090120A4082
:1038800070B51E490888401C088080B20A2834D3CD
:10389000002008801A490A88521C0A8092B20A2A1B
:1038A0000ED30880FDF752FCFDF702FEFDF72AF863
:1038B00014490860FDF7F6FDFDF724F81249086089
:1038C000124C2578002D06D0FDF704FF104900F0BA
:1038D00073FE124E0BE0FDF75DFA0D4900F06CFE31
:1038E000FDF736F80B4908600B4EFDF7D3F90121BF
:1038F0004D402570FDF72CF8306070BD421D202032
:10390000401D2020BC1D2020B81D2020441D20204B
:103910000000C842B01D2020AC1D2020981E202091
:10392000F0B589B001250195C04800902024002100
:1039300007913F2640272046069432463B46FFF734
:1039400001FAFFF769F85320089000F0F9F905959E
:103950000195B74800902046079C214632463B46D9
:10396000FFF7F0F9FFF758F8089800F0E9F901952A
:10397000B0480090069D2846214632463B46FFF758
:10398000E1F9FFF749F8089800F0DAF9059C01948D
:10399000A94800902846079D294632463B46FFF736
:1039A000D1F9FFF739F8089800F0CAF90194A34853
:1039B0000090069C2046294632463B46FFF7C2F956
:1039C000FFF72AF8089800F0BBF9059D01959C487F
:1039D00000902046079C214632463B46FFF7B2F94D
:1039E000FFF71AF8089800F0ABF901959548009098
:1039F000069D2846214632463B46FFF7A3F9FFF7CE
:103A00000BF8089800F09CF9059C01948E480090F2
:103A10002846079D294632463B46FFF793F9FEF7B5
:103A2000FBFF089800F08CF9019488480090069CF0
:103A30002046294632463B46FFF784F9FEF7ECFF65
:103A4000089800F07DF9059D019581480090204679
:103A5000079C214632463B46FFF774F9FEF7DCFF30
:103A6000089800F06DF901957A480090069D284667
:103A700021463246344603963B460497FFF762F9E7
:103A8000FEF7CAFF089800F05BF9059E01967248A0
:103A900000902846079D294622463B46FFF752F9EB
:103AA000FEF7BAFF089C204600F04AF95F480090F4
:103AB0000196069E30462946039F3A46049BFFF72F
:103AC00041F9FEF7A9FF204600F03AF95848009066
:103AD000059D0195304607993A46049BFFF732F958
:103AE000FEF79AFF204600F02BF95248009001950E
:103AF0003046079F3946039A049D2B46FFF722F96B
:103B0000FEF78AFF204600F01BF94B48009005980D
:103B1000019030463946039E32462F462B46FFF72A
:103B200011F9FEF779FF204600F00AF943480090AA
:103B3000059D019506980799324634463B46FFF7A6
:103B400001F9FEF769FF089800F0FAF83C48009088
:103B50000195069F3846079E31462246049BFFF793
:103B6000F1F8FEF759FF089800F0EAF835480090A0
:103B70000195384631462246049F3B46FFF7E2F85E
:103B8000FEF74AFF089800F0DBF82F4800900195F7
:103B9000069E3046079922463B46FFF7D3F8FEF7CC
:103BA0003BFF089C204600F0CBF828480090019588
:103BB0003046079F3946039E3246049BFFF7C2F802
:103BC000FEF72AFF204600F0BBF82148009001953F
:103BD000069C204639463246049F3B46FFF7B2F822
:103BE000FEF71AFF089800F0ABF81A48009001950C
:103BF0002046079D294632463B46FFF7A3F8FEF7CD
:103C00000BFF089E304600F09BF813480090059883
:103C1000019020462946039A3B46FFF793F8FEF7AA
:103C2000FBFE304600F08CF809B0F0BD000020200B
:103C3000E0072020D8092020D00B2020C80D20200C
:103C4000B00F2020A8112020A0132020981520209C
:103C5000F8012020F0032020E805202010B51248AC
:103C60000068C0B20B281ED15F48C1690F4A138893
:103C70007E2B13D813885C1C14800D4AD154026823
:103C8000D20708D00268D20705D00268D20702D056
:103C90000268D207F3D1C9B2816101E0002010802F
:103CA00004480121017010BD20901040341F2020D5
:103CB000B31E2020331F20200A480068C0B20B2802
:103CC0000FD10948026809490878C62803D8084B6B
:103CD0001A54401C0870064900220A540548012164
:103CE000017070472010504024115040BD18202012
:103CF000F4172020BC1820207047000080B5FFF783
:103D0000E3FC0120C003044908600449086004A0E2
:103D1000FCF78AFB80BDC04680E200E000E100E0E5
:103D2000426F61726420496E6974205B5B202A2AAD
:103D3000204C434B4642202A2A205D5D0D000000A6
:103D4000B0B57D21090241431E480368262206E0E2
:103D5000E41A051F2D686419A2188A4210D21C4665
:103D60000368A34208D10368A34205D10368A342B4
:103D700002D10368A342F3D09C42E9D9E41AEBE7ED
:103D8000B0BDC046B0B50F490B684001262206E021
:103D9000E41A0D1F2D686419A218824210D21C4625
:103DA0000B68A34208D10B68A34205D10B68A3425C
:103DB00002D10B68A342F3D09C42E9D9E41AEBE7A5
:103DC000B0BDC04618E000E0C3490A68D20708D079
:103DD0000A68D20705D00A68D20702D00A68D2075B
:103DE000F3D1C2B28A617047089110408AB0FFF7E0
:103DF00085FFFFF769FCB24E306801242043306034
:103E0000B04800212246FDF7DFFA3068A043306059
:103E10006003AD4907900860E00708900860A002C1
:103E2000AA490A6882430A600694E003A849086028
:103E3000BFF34F8FBFF36F8FA64908607D20C0008E
:103E40000390FFF77DFFA5A0FCF7EEFAA2480168FA
:103E5000C90708D00168C90705D00168C90702D0A1
:103E60000168C907F3D1FDF781FFFDF755FC0698FE
:103E700000900025F5A2102128460B46FFF774F8A4
:103E8000FEF7CAFD039C2046FFF75AFFFDF744FCEE
:103E9000FFF746FDFDF740FCFDF7D8FB64273846E9
:103EA000FFF74EFF2046FFF74BFFFCF7A3FF384616
:103EB000FFF746FFFDF7CBFA05973846FFF740FFBF
:103EC000FDF71AF9E54F3878411E88410090E44A21
:103ED0000824284629462346FFF746F83878401E2E
:103EE000411E884100902020DE4A29462346FFF7E4
:103EF0003BF83878801E411E884100904020DA4A05
:103F000029462346FFF730F83878C01E411E884105
:103F100000906020D54A29462346FFF725F8FEF792
:103F20007BFD09951EE0D8480068642100F0FCF98B
:103F30000246E14C2046E1A1FCF740F92046FCF79F
:103F40008BFEDC4B1878401CF6494143090C0322D8
:103F50004A43801A1870FFF72FF8FEF75DFD0A201C
:103F6000FFF7EEFEFDF784FB042861D87844007962
:103F7000400087449102101C2B003878032803D19D
:103F8000BB49097800290DD1B9490D70002847D0E7
:103F9000401E38704CE03878032821D1B4490978A4
:103FA00000291DD0B34A1078012181433FE0B04879
:103FB0000178387803281AD1002918D0AD48007844
:103FC000012830D0002833D1AD4A2DE0A849087827
:103FD0000D703978032901D1002829D13D7027E0DF
:103FE000A3490D70401C03210140397020E04A1E96
:103FF00091410328069A08D10A46002A07D19D4814
:10400000057001209A49087012E0002AF7D00321B8
:10401000397099490870964805709648057007E010
:104020000320387004E0954A1078414241411170F4
:10403000FDF772FB3878411E884100900025082466
:1040400028462946864A2346FEF78EFF3878401ECA
:10405000411E8841009020202946824A2346FEF7CF
:1040600083FF3878801E411E8841009040202946F9
:104070007D4A2346FEF778FF3878C01E411E8841EE
:10408000009060202946099D784A2346FEF76CFF80
:10409000FEF792FFFEF7C0FCFFF7F2FB794B1D70B5
:1040A0003878032841D8800001A1095828468F4656
:1040B000ED400000F94000001941000029410000D6
:1040C0000458084000400840A0120A4028901040C0
:1040D00080E100E080E200E0089110405359535421
:1040E000454D203D2052454144590D006B48006824
:1040F0006B49884217D818E06648016801205029AA
:10410000014600DC0021644A1268232A069A00DC7A
:104110000A46002A08D108E05B4800685B4940185D
:104120005B49884201D8012018701878012814D101
:104130005D490868401C0860052833D300200860EA
:10414000584A10784142414111704C490978002980
:1041500016D0002822D03C4822E0002151480170AE
:1041600051480160012437482246FDF72DF9306897
:10417000A04330600798344908600898086011E04F
:10418000002853D0002101242E482246FDF71CF9B7
:104190003068A043306007982B49EFE72A48103871
:1041A000089901603878032800D1D4E640490868AE
:1041B000401C08600A2800D2CDE6002008603D4877
:1041C0000078022800D1AEE6012825D0002800D0D2
:1041D000B7E6474805682846039C214600F0A4F846
:1041E00006462E4800680490059900F09DF80246A6
:1041F0007443281B099D80B23E494843C00C009679
:104200000F4E01900598504304990B1A2A4C2046F2
:1042100039A1FBF7D3FF91E61E4803681E480268E8
:10422000254C20462AA1FBF7C9FF87E6306801220A
:104230001043306003481D49FDF7C6F8B2E7C04699
:104240000458084000400840A0120A40202053595A
:104250005354454D2052454144590000B41D20207F
:10426000B5610000A9610000C0610000BB610000F1
:10427000371F2020361F2020941E20209D1D202027
:10428000B21E20209C1D2020981E20209CCAF3FFD7
:1042900023DEF3FFB81D2020BC1D2020B01D2020F0
:1042A000AC0D00009E1D2020A01D2020C409000090
:1042B000A81D2020A41D2020E01D20204C55583A88
:1042C0000A4C696768743A202564206C780A0000FB
:1042D0004448543A0A54656D703A20256420430AD4
:1042E00048756D696474793A2025642025250A0093
:1042F000AC1D2020CDCC0000424D503A0A54656DD3
:10430000703A2025642E2530326420430A507265AD
:1043100073733A2025642E25303264206B50610A75
:10432000000000005655000043088B421AD30022BB
:1043300003098B4279D3030A8B425ED3030B8B4272
:1043400042D3030C8B4227D30902FF2212BA030C7B
:104350008B4202D31212090203D0030B8B4233D3D8
:104360001AE0D3E0411A8041401C704703460B43DA
:1043700071D443088B42F5D3002203098B4254D3F6
:10438000030A8B4239D3030B8B421DD3030C8B42A0
:1043900002D394466EE0090AC30B8B4201D3CB03D0
:1043A000C01A5241830B8B4201D38B03C01A524176
:1043B000430B8B4201D34B03C01A5241030B8B4278
:1043C00001D30B03C01A5241C30A8B4201D3CB0263
:1043D000C01A5241830A8B4201D38B02C01A524148
:1043E000430A8B4201D34B02C01A5241030A8B424B
:1043F00001D30B02C01A5241CDD2C3098B4201D363
:10440000CB01C01A524183098B4201D38B01C01AE0
:10441000524143098B4201D34B01C01A5241030957
:104420008B4201D30B01C01A5241C3088B4201D306
:10443000CB00C01A524183088B4201D38B00C01AB3
:10444000524143088B4201D34B00C01A5241411ADA
:10445000524110007047CA0F00D04942031000D3E8
:104460004042534000229C4603098B422DD3030A4D
:104470008B4212D38901FC2212BA030A8B420CD35D
:10448000890192118B4208D3890192118B4204D386
:10449000890137D0921100E08909C3098B4201D309
:1044A000CB01C01A524183098B4201D38B01C01A40
:1044B000524143098B4201D34B01C01A52410309B7
:1044C0008B4201D30B01C01A5241C3088B4201D366
:1044D000CB00C01A524183088B4201D38B00C01A13
:1044E0005241D9D243088B4201D34B00C01A5241EA
:1044F000411A00D201465241104663465B1000D378
:104500004042704763465B1000D3404201B5002132
:10451000004201D0C9430846C046C04602BD3038FB
:104520000A2801D2012070470020704770B501258C
:10453000ED0704004C4020D4441A01D2001B091995
:10454000C60D4B00F2B2FF2A29D01B0E2CD0000260
:104550000C0228432C43D31ADC40051910D2280A38
:1045600002D3401C6D0611D0761EF6058019FF2A75
:1045700000DA70BDC00DC00570BD694000F07AF86A
:1045800001200543C541521C761CE8E764089C40A5
:10459000C90161408900E7D10124A043E4E71B0E73
:1045A000440200D0034870BD002AFCD1C00FC007F0
:1045B00070BD00BF0000C07F70B5420064414B0079
:1045C0005C41120E39D01B0E38D0FF2A3CD0FF2B95
:1045D0003AD0D2187F3A40024902400A490A4518A7
:1045E000ED0106004E43000A090A48430104731A0C
:1045F0004019190C4318990F04D05B080121490791
:104600005B1A521CD80904D3401CF50301D19D0646
:1046100007D0FF2A08D2D50506D0E4072043401969
:1046200070BD0125A843F4E7002A01DCE00770BD56
:104630002402FF202043C00570BD1B0EFF2A03D0BB
:10464000FF2B01D0E00770BDFF2636064500B542BE
:1046500006D84D00B54203D8D218FF2A00D0E7E7AC
:10466000004870BD0000C07F70B50125ED07040053
:104670004C4022D4441A02D26C40001B0919C60DCA
:104680004B00F2B2FF2A4BD01B0E50D000020C029E
:10469000A8432C43D31ADC40051B05D5AD0019D324
:1046A0006D08761E521E37D0F605280A01D28019F1
:1046B00070BD70416D0603D070BD6940FFF73CFFCF
:1046C0009C4009026140490001D0401E70BD012498
:1046D000A04370BD6D081DD001202B0C01D12D040D
:1046E00010302B0E01D12D0208302B0F01D12D01DE
:1046F000001DAB0F01D1AD00801CEB0F01D16D008F
:10470000401C361A121A6D00680AF5054019012A74
:1047100002DB70BD002070BDC036300AC00770BD1E
:104720001B0E440201D1FF2B00D1024870BD002AAC
:10473000F0D070BD0000C07F040000080000000041
:1047400000000002000100001081828384858687BA
:1047500088898B8C8D8E8F919293959697999A9C40
:104760009D9FA0A2A3A5A7A8AAACAEB0B2B3B5B7AF
:10477000B9BCBEC0C2C5C7C9CCCED1D4D7D9DCDF85
:10478000E2E6E9ECF0F3F7FAFE00000000000000BA
:1047900000002F000000000700070000147F147FB6
:1047A0001400242A7F2A1200626408132300364969
:1047B00055225000000503000000001C22410000AB
:1047C0000041221C000014083E08140008083E089E
:1047D00008000000A0600000080808080800006049
:1047E000600000002010080402003E5149453E00D0
:1047F00000427F4000004261514946002141454B43
:1048000031001814127F10002745454539003C4AF5
:10481000494930000171090503003649494936000C
:10482000064949291E0000363600000000563600B1
:104830000000081422410000141414141400004154
:1048400022140800020151090600324959513E0064
:104850007C1211127C007F49494936003E4141419A
:1048600022007F4141221C007F49494941007F09C4
:10487000090901003E4149497A007F0808087F0084
:1048800000417F4100002040413F01007F08142289
:1048900041007F40404040007F020C027F007F04C7
:1048A00008107F003E4141413E007F090909060092
:1048B0003E4151215E007F09192946004649494978
:1048C000310001017F0101003F4040403F001F20B7
:1048D00040201F003F4038403F006314081463002D
:1048E000070870080700615149454300007F4141B6
:1048F0000000552A552A55000041417F000004025E
:104900000102040040404040400000010204000059
:104910002054545478007F48444438003844444478
:104920002000384444487F00385454541800087E0E
:104930000901020018A4A4A47C007F0804047800E4
:1049400000447D4000004080847D00007F102844AA
:10495000000000417F4000007C04180478007C08BF
:1049600004047800384444443800FC24242418000B
:1049700018242418FC007C080404080048545454EB
:104980002000043F444020003C4040207C001C208C
:1049900040201C003C4030403C004428102844008B
:1049A0001CA0A0A07C004464544C4414141414149F
:1049B000140000000000000000000000000000FCE7
:1049C000000000000002000000000C020C020000C9
:1049D000000000000090D0BCD0BC90000300030099
:1049E000001824FE448C000302070201001824D89A
:1049F000B04C80000300010201C038E438E000013F
:104A0000020201020208060000000000000000008F
:104A100000000000F804020000000102040002048B
:104A2000F800000004020100009060F860900000AF
:104A300000010000002020FC2020000000010000F8
:104A400000000000000000080600000000202020F8
:104A50002020000000000000000000000000000016
:104A600002000000000080601C020004030000003F
:104A700000F8040404F8000102020201000008FC2E
:104A80000000000002030200001884442418000300
:104A9000020202020008042424D8000102020201DA
:104AA0000040B088FC80000000000302003C242489
:104AB00024C400010202020100F824242CC00001D9
:104AC00002020201000C04E41C04000000030000C8
:104AD00000D8242424D800010202020100384444F2
:104AE00044F8000003020201000000100000000072
:104AF000000200000000002000000000000600008E
:104B000000002050880402000000000102909090F4
:104B10009090000000000000000002048850200077
:104B200002010000001804C4241800000002000064
:104B300000F804E494F80001020202020000E09C84
:104B4000F0800002030000030204FC2424D80002C9
:104B50000302020100F80404040C00010202020135
:104B60000004FC0404F80002030202010004FC2417
:104B7000740C0002030202030004FC24740C000203
:104B80000302000000F0080444CC400001020201CE
:104B90000004FC2020FC040203000003020404FCC7
:104BA000040400020203020200000404FC040406E0
:104BB000040403000004FC24D00C040203020003DC
:104BC0000204FC04000000020302020203FC3CC0D9
:104BD0003CFC0003000300030004FC30C4FC04029E
:104BE0000302000300F8040404F8000102020201B9
:104BF0000004FC24241800020302000000F884844E
:104C000004F80001020207050004FC246498000275
:104C10000302000302182424448C00030202020150
:104C2000000C04FC040C0000020302000004FC0061
:104C300000FC04000102020100047C80E01C04006E
:104C400000030000001CE03CE01C00000300030027
:104C500000049C609C0400020300030200041CE0AA
:104C60001C04000002030200000C84641C04000207
:104C700003020203000000FE020200000007040419
:104C800000000E30C000000000000102000002021F
:104C9000FE000000040407000000040204000000FD
:104CA00000000000000000000000000808080808DC
:104CB000080000020000000000000000000040A00A
:104CC000A0C00000010202030204FC2020C000007A
:104CD000030202010000C020206000000102020265
:104CE0000000C02024FC0000010202030200C0A05A
:104CF000A0C0000001020202000020F824240400E9
:104D000002030202000040A0A0602000070A0A0A75
:104D10000404FC2020C0000203020003020020E47F
:104D2000000000000203020000000020E400000870
:104D3000080807000004FC80E020200203020003B2
:104D4000020404FC000000020203020200E020E072
:104D500020C00003000300030020E02020C0000268
:104D6000030200030200C02020C000000102020173
:104D70000020E02020C000080F0A02010000C0202F
:104D800020E0000001020A0F0820E040202000027D
:104D900003020000000060A0A02000000202020345
:104DA000000020F820000000000102020020E000C6
:104DB00020E00000010202030220E02080602000C9
:104DC00000030100006080E0806000000300030039
:104DD0000020608060200002030003020020E02029
:104DE0008060200808070100000020A0602000006B
:104DF0000203020200000020DE020000000007049F
:104E000000000000FF00000000000F00000002DEB4
:104E10002000000004070000000201020404020058
:104E20000000000000000000000000000000000082
:104E30000000000000000000F8000000000000007A
:104E4000333000000000100C06100C0600000000BB
:104E5000000000000040C07840C0784000043F04DB
:104E6000043F040400007088FC0830000000182093
:104E7000FF211E0000F008F000E018000000211CD7
:104E8000031E211E0000F00888700000001E212370
:104E9000241927211010160E000000000000000049
:104EA0000000000000000000E01804020000000004
:104EB000071820400000020418E000000000402015
:104EC0001807000000404080F080404000020201CE
:104ED0000F01020200000000F000000000010101CB
:104EE0001F01010100000000000000000080B07000
:104EF00000000000000000000000000000000101B0
:104F0000010101010100000000000000000030303C
:104F1000000000000000000000806018040060181D
:104F2000060100000000E010080810E000000F106B
:104F30002020100F00001010F800000000002020BA
:104F40003F2020000000700808088870000030280A
:104F500024222130000030088888483000001820C2
:104F60002020110E000000C02010F80000000704EF
:104F700024243F240000F80888880808000019212C
:104F80002020110E0000E0108888180000000F118A
:104F90002020110E0000380808C838080000000062
:104FA0003F000000000070880808887000001C2284
:104FB0002121221C0000E010080810E00000003150
:104FC0002222110F00000000C0C0000000000000FD
:104FD0003030000000000000800000000000008071
:104FE0006000000000000080402010080000010266
:104FF00004081020004040404040404000040404A9
:105000000404040400000810204080000000201068
:105010000804020100007048080808F000000000C1
:105020003036010000C030C828E810E0000718271B
:105030002423140B000000C038E0000000203C23B3
:10504000020227382008F8888888700000203F2056
:105050002020110E00C0300808080838000718206A
:10506000202010080008F808080810E000203F2061
:105070002020100F0008F88888E8081000203F2042
:10508000202320180008F88888E8081000203F2016
:105090000003000000C0300808083800000718208E
:1050A00020221E020008F808000008F808203F210E
:1050B0000101213F20000808F80808000000202016
:1050C0003F2020000000000808F8080800C0808089
:1050D000807F00000008F888C028180800203F20C2
:1050E000012638200008F8080000000000203F20BA
:1050F000202020300008F8F800F8F80800203F00D1
:105100003F003F200008F830C00008F808203F208A
:105110000007183F00E01008080810E0000F1020FA
:105120002020100F0008F808080808F000203F2190
:105130000101010000E01008080810E0000F182429
:105140002438504F0008F8888888887000203F2055
:1051500000030C3020007088080808380000382050
:105160002121221C00180808F80808180000002057
:105170003F2000000008F808000008F808001F2081
:105180002020201F000878880000C8380800000789
:10519000380E010000F80800F80008F800033C078A
:1051A00000073C0300081868808068180820302C2D
:1051B00003032C30200838C800C83808000000203D
:1051C0003F2000000010080808C8380800203826D2
:1051D0002120201800000000FE0202020000000052
:1051E0007F40404000000C30C00000000000000084
:1051F000010638C00000020202FE0000000040402C
:10520000407F0000000000040202020400000000D1
:10521000000000000000000000000000008080800E
:1052200080808080800002020400000000000000F6
:105230000000000000000080808080000000192431
:105240002222223F2008F8008080000000003F1149
:105250002020110E000000008080800000000E1150
:105260002020201100000000808088F800000E112E
:105270002020103F200000808080800000001F223E
:105280002222221300008080F088888818002020C5
:105290003F202000000000808080808000006B9410
:1052A000949493600008F8008080800000203F21E3
:1052B0000000203F2000809898000000000020207F
:1052C0003F20200000000000809898000000C0806F
:1052D00080807F000008F8000080808000203F244C
:1052E000022D302000000808F800000000002020F7
:1052F0003F202000008080808080808000203F2030
:10530000003F20003F8080008080800000203F21FF
:105310000000203F200000808080800000001F20CF
:105320002020201F00808000808000000080FFA1DE
:105330002020110E000000008080808000000E11EF
:105340002020A0FF80808080008080800020203F7F
:105350002120000100000080808080800000332434
:105360002424241900008080E080800000000000D8
:105370001F202000008080000000808000001F208F
:105380002020103F20808080000080808000010E5F
:10539000300806010080800080008080800F300C83
:1053A000030C300F000080800080808000002031DE
:1053B0002E0E312000808080000080808080818ED1
:1053C00070180601000080808080808000002130FD
:1053D0002C2221300000000000807C02020000002E
:1053E00000003F404000000000FF000000000000FF
:1053F00000FF0000000002027C800000000040402E
:105400003F00000000000601010202040400000049
:10541000000000000000000000000000000000008C
:10542000000000000000000000000000000000007C
:105430000000000000000000000000000000F0F08C
:10544000F0000000000000000000017F01000000EB
:105450000000000000001C1C1C0000000000008078
:1054600060301C8C60301C0C00000000000000004C
:10547000000000000000000000000000000000002C
:1054800000000000E00000000000E000000086E6F0
:105490009F86868686E69F860000011F0101010126
:1054A000011F010100000080C06020F820E0C00062
:1054B00000000003070C18FF70E1810000000007E6
:1054C0000F10107F100F0700008060206080000028
:1054D00000E02000000F3020309F70DC371030C01B
:1054E000000000100E03000718101807000000C08D
:1054F0002020E0C0000000000080E01F38E88703A3
:10550000C43C040000070F1810100B070D10100802
:105510000000808C4C3800000000000000000000FB
:10552000000000000000000000000000000000007B
:10553000000000000000000000000080E0300804CF
:10554000000000000000FEFF01000000000000005D
:10555000000000030F1820400000040830E0800025
:1055600000000000000000000001FFFE000000003D
:1055700000004020180F03000000000000000000A1
:10558000000000C00000000000004266663C18FFFA
:10559000183C6666420000000000000300000000A6
:1055A000000000000000008000000000000010105B
:1055B000101010FF10101010100000000000000369
:1055C00000000000000000000000000000000000DB
:1055D0000000000000000000000000000000808CBF
:1055E0004C38000000000000000000000000000037
:1055F000000000000000101010101010101010100B
:10560000000000000000000000000000000000009A
:10561000000000000000000000000000000000008A
:10562000000000000000001C1C1C00000000000026
:10563000000000000000000000E0380C0000000046
:105640000080701C03000000000060380E010000A4
:105650000000000000000080C060202060C08000CA
:105660000000FEFF010000000001FFFE0000010736
:105670000E181010180E0701000000808080C0E096
:1056800000000000000000000000FFFF000000001C
:105690000000001010101F1F1010100000008040AC
:1056A0002020202060C080000000030300804020F4
:1056B000381F070000001C1A1918181818181F00A6
:1056C000000080C020202060C08000000000030394
:1056D000001010182FE780000000070F10101010A6
:1056E000180F070000000000000000C0E0F00000FC
:1056F0000000C0B088868180FFFF8080000000002D
:10570000000010101F1F1010000000E060606060BB
:10571000606060000000003F1008080818F0E0001A
:105720000000070B101010101C0F03000000008079
:10573000C040202020E0C0000000FCFF211008082D
:105740000818F0E0000001070C18101010080F03F3
:10575000000000C0E06060606060E0600000000386
:10576000000000E0180700000000000000001F1FFC
:1057700000000000000080C0602020202060C08069
:10578000000087EF2C1818303068CF830000070F17
:105790000810101010180F07000000C0C0202020B3
:1057A00020C0800000001F3F604040402010FFFEEE
:1057B0000000000C1C101010080F03000000000077
:1057C00000000000000000000000000000000E0EBD
:1057D0000E0000000000000000001C1C1C00000067
:1057E00000000000000000000000000000000000B9
:1057F00000000C0C00000000000000000000583801
:1058000000000000000000000000000080402010A8
:105810000000001028448201000000000000000089
:105820000000000102040810000000000000000059
:105830000000000000008484848484848484848440
:105840000000000000000000000000000000001048
:105850002040800000000000000000000000000167
:10586000824428100000001008040201000000001B
:105870000000C020201010101030E0C00000030312
:105880000000F010080C070300000000001C1C1CA6
:105890000000000000000000C0406020202040C048
:1058A0000000FCFF01F00E03C1FE03807F00010732
:1058B0000E08111110110904020000000080E0E040
:1058C00000000000000000807C4340477FF880001B
:1058D0000010181F1000000000131F1C1020E0E033
:1058E0002020202060C080000000FFFF101010105A
:1058F000182FE78000101F1F1010101010180F072E
:1059000000000080C0402020202060E00000FCFF5C
:105910000100000000000001000001070E18101037
:10592000100804030020E0E02020202040C0800078
:105930000000FFFF000000000001FFFE00101F1F1D
:1059400010101018080E07010020E0E02020202091
:10595000202060800000FFFF101010107C0000006D
:1059600000101F1F10101010101018060020E0E08B
:1059700020202020206060800000FFFF1010101009
:105980007C00000100101F1F10000000000000003C
:1059900000000080C06020202040E0000000FCFFEC
:1059A0000100004040C0C140400001070E18101027
:1059B000100F0F000020E0E0200000000020E0E0D9
:1059C0002000FFFF101010101010FFFF00101F1F0D
:1059D0001000000000101F1F100000202020E0E039
:1059E00020202000000000000000FFFF0000000059
:1059F0000000001010101F1F101010000000000009
:105A000000202020E0E02020200000000000000016
:105A1000FFFF0000000060E0808080C07F3F00004A
:105A20000020E0E020000020A06020200000FFFF18
:105A300030187CE3C000000000101F1F10000001A0
:105A4000131F1C181020E0E02000000000000000E0
:105A50000000FFFF000000000000000000101F1FFA
:105A600010101010101018060020E0E0E0000000F8
:105A700000E0E0E02000FF013FFEC0E01E01FFFF6C
:105A800000101F1000031F0300101F1F1020E0E074
:105A9000C0000000000020E02000FF0003071C7889
:105AA000E08000FF00101F100000000000030F1F27
:105AB00000000080C060202060C080000000FEFF69
:105AC000010000000000FFFE000001070E1810108A
:105AD000180C07010020E0E0202020202060C0807A
